{
  "address": "0x72D3E15619014D5f76f00f5C30D05E9741711F57",
  "abi": [
    {
      "anonymous": false,
      "inputs": [
        {
          "indexed": true,
          "internalType": "address",
          "name": "newAddress",
          "type": "address"
        }
      ],
      "name": "AddressesProviderRegistered",
      "type": "event"
    },
    {
      "anonymous": false,
      "inputs": [
        {
          "indexed": true,
          "internalType": "address",
          "name": "newAddress",
          "type": "address"
        }
      ],
      "name": "AddressesProviderUnregistered",
      "type": "event"
    },
    {
      "anonymous": false,
      "inputs": [
        {
          "indexed": true,
          "internalType": "address",
          "name": "previousOwner",
          "type": "address"
        },
        {
          "indexed": true,
          "internalType": "address",
          "name": "newOwner",
          "type": "address"
        }
      ],
      "name": "OwnershipTransferred",
      "type": "event"
    },
    {
      "inputs": [
        {
          "internalType": "address",
          "name": "addressesProvider",
          "type": "address"
        }
      ],
      "name": "getAddressesProviderIdByAddress",
      "outputs": [
        {
          "internalType": "uint256",
          "name": "",
          "type": "uint256"
        }
      ],
      "stateMutability": "view",
      "type": "function"
    },
    {
      "inputs": [],
      "name": "getAddressesProvidersList",
      "outputs": [
        {
          "internalType": "address[]",
          "name": "",
          "type": "address[]"
        }
      ],
      "stateMutability": "view",
      "type": "function"
    },
    {
      "inputs": [],
      "name": "owner",
      "outputs": [
        {
          "internalType": "address",
          "name": "",
          "type": "address"
        }
      ],
      "stateMutability": "view",
      "type": "function"
    },
    {
      "inputs": [
        {
          "internalType": "address",
          "name": "provider",
          "type": "address"
        },
        {
          "internalType": "uint256",
          "name": "id",
          "type": "uint256"
        }
      ],
      "name": "registerAddressesProvider",
      "outputs": [],
      "stateMutability": "nonpayable",
      "type": "function"
    },
    {
      "inputs": [],
      "name": "renounceOwnership",
      "outputs": [],
      "stateMutability": "nonpayable",
      "type": "function"
    },
    {
      "inputs": [
        {
          "internalType": "address",
          "name": "newOwner",
          "type": "address"
        }
      ],
      "name": "transferOwnership",
      "outputs": [],
      "stateMutability": "nonpayable",
      "type": "function"
    },
    {
      "inputs": [
        {
          "internalType": "address",
          "name": "provider",
          "type": "address"
        }
      ],
      "name": "unregisterAddressesProvider",
      "outputs": [],
      "stateMutability": "nonpayable",
      "type": "function"
    }
  ],
  "transactionHash": "0xa8862e7a0c59021ab792f6fba2b38af22d8553d9c3e7f3af4e225d4e838947f4",
  "args": [],
  "numDeployments": 1,
  "solcInputHash": "ef0455d97dc5c90d839d286a493accf2",
  "bytecode": "0x608060405234801561001057600080fd5b5061001a3361001f565b61006f565b600080546001600160a01b038381166001600160a01b0319831681178455604051919092169283917f8be0079c531659141344cd1fd0a4f28419497f9722a3daafe3b4186f6b6457e09190a35050565b61076d8061007e6000396000f3fe608060405234801561001057600080fd5b506004361061007d5760003560e01c80638da5cb5b1161005b5780638da5cb5b146100bd578063d0267be7146100d8578063d258191e1461010f578063f2fde38b1461012257600080fd5b80630de2670714610082578063365ccbbf14610097578063715018a6146100b5575b600080fd5b6100956100903660046105f4565b610135565b005b61009f6101ed565b6040516100ac9190610616565b60405180910390f35b610095610354565b6000546040516001600160a01b0390911681526020016100ac565b6101016100e63660046105f4565b6001600160a01b031660009081526001602052604090205490565b6040519081526020016100ac565b61009561011d366004610663565b610368565b6100956101303660046105f4565b610404565b61013d61047d565b600060016000836001600160a01b03166001600160a01b03168152602001908152602001600020541160405180604001604052806002815260200161343160f01b815250906101a85760405162461bcd60e51b815260040161019f919061068d565b60405180910390fd5b506001600160a01b038116600081815260016020526040808220829055517f851e5971c053e6b76e3a1e0b8ffa81430df738007fad86e195c409a757faccd29190a250565b60606000600280548060200260200160405190810160405280929190818152602001828054801561024757602002820191906000526020600020905b81546001600160a01b03168152600190910190602001808311610229575b5050505050905060008151905060008167ffffffffffffffff81111561026f5761026f6106e2565b604051908082528060200260200182016040528015610298578160200160208202803683370190505b50905060005b8281101561034c576000600160008684815181106102be576102be6106f8565b60200260200101516001600160a01b03166001600160a01b0316815260200190815260200160002054111561033a578381815181106102ff576102ff6106f8565b6020026020010151828281518110610319576103196106f8565b60200260200101906001600160a01b031690816001600160a01b0316815250505b806103448161070e565b91505061029e565b509392505050565b61035c61047d565b61036660006104d7565b565b61037061047d565b6040805180820190915260028152611b9960f11b6020820152816103a75760405162461bcd60e51b815260040161019f919061068d565b506001600160a01b03821660009081526001602052604090208190556103cc82610527565b6040516001600160a01b038316907f2db38786c10176b033a1608361716b0ca992e3af55dc05b6dc710969790beeda90600090a25050565b61040c61047d565b6001600160a01b0381166104715760405162461bcd60e51b815260206004820152602660248201527f4f776e61626c653a206e6577206f776e657220697320746865207a65726f206160448201526564647265737360d01b606482015260840161019f565b61047a816104d7565b50565b6000546001600160a01b031633146103665760405162461bcd60e51b815260206004820181905260248201527f4f776e61626c653a2063616c6c6572206973206e6f7420746865206f776e6572604482015260640161019f565b600080546001600160a01b038381166001600160a01b0319831681178455604051919092169283917f8be0079c531659141344cd1fd0a4f28419497f9722a3daafe3b4186f6b6457e09190a35050565b60025460005b8181101561058457826001600160a01b031660028281548110610552576105526106f8565b6000918252602090912001546001600160a01b0316141561057257505050565b8061057c8161070e565b91505061052d565b5050600280546001810182556000919091527f405787fa12a823e0f2b7631cc41b3ba8828b3321ca811111fa75cd3aa3bb5ace0180546001600160a01b0319166001600160a01b0392909216919091179055565b80356001600160a01b03811681146105ef57600080fd5b919050565b60006020828403121561060657600080fd5b61060f826105d8565b9392505050565b6020808252825182820181905260009190848201906040850190845b818110156106575783516001600160a01b031683529284019291840191600101610632565b50909695505050505050565b6000806040838503121561067657600080fd5b61067f836105d8565b946020939093013593505050565b600060208083528351808285015260005b818110156106ba5785810183015185820160400152820161069e565b818111156106cc576000604083870101525b50601f01601f1916929092016040019392505050565b634e487b7160e01b600052604160045260246000fd5b634e487b7160e01b600052603260045260246000fd5b600060001982141561073057634e487b7160e01b600052601160045260246000fd5b506001019056fea26469706673582212205694b1432d7dbb004480c952fbb63744de3581cded5b3d48ecb7347b5bd3bece64736f6c634300080c0033",
  "devdoc": {
    "author": "Aave*",
    "details": "Main registry of LendingPoolAddressesProvider of multiple Aave protocol's markets - Used for indexing purposes of Aave protocol's markets - The id assigned to a LendingPoolAddressesProvider refers to the market it is connected with,   for example with `0` for the Aave main market and `1` for the next created",
    "kind": "dev",
    "methods": {
      "getAddressesProviderIdByAddress(address)": {
        "details": "Returns the id on a registered LendingPoolAddressesProvider",
        "returns": {
          "_0": "The id or 0 if the LendingPoolAddressesProvider is not registered"
        }
      },
      "getAddressesProvidersList()": {
        "details": "Returns the list of registered addresses provider",
        "returns": {
          "_0": "The list of addresses provider, potentially containing address(0) elements*"
        }
      },
      "owner()": {
        "details": "Returns the address of the current owner."
      },
      "registerAddressesProvider(address,uint256)": {
        "details": "Registers an addresses provider",
        "params": {
          "id": "The id for the new LendingPoolAddressesProvider, referring to the market it belongs to*",
          "provider": "The address of the new LendingPoolAddressesProvider"
        }
      },
      "renounceOwnership()": {
        "details": "Leaves the contract without owner. It will not be possible to call `onlyOwner` functions. Can only be called by the current owner. NOTE: Renouncing ownership will leave the contract without an owner, thereby disabling any functionality that is only available to the owner."
      },
      "transferOwnership(address)": {
        "details": "Transfers ownership of the contract to a new account (`newOwner`). Can only be called by the current owner."
      },
      "unregisterAddressesProvider(address)": {
        "details": "Removes a LendingPoolAddressesProvider from the list of registered addresses provider",
        "params": {
          "provider": "The LendingPoolAddressesProvider address*"
        }
      }
    },
    "title": "LendingPoolAddressesProviderRegistry contract",
    "version": 1
  },
  "userdoc": {
    "kind": "user",
    "methods": {},
    "version": 1
  },
  "storageLayout": {
    "storage": [
      {
        "astId": 3666,
        "contract": "contracts/lending/configuration/LendingPoolAddressesProviderRegistry.sol:LendingPoolAddressesProviderRegistry",
        "label": "_owner",
        "offset": 0,
        "slot": "0",
        "type": "t_address"
      },
      {
        "astId": 20042,
        "contract": "contracts/lending/configuration/LendingPoolAddressesProviderRegistry.sol:LendingPoolAddressesProviderRegistry",
        "label": "_addressesProviders",
        "offset": 0,
        "slot": "1",
        "type": "t_mapping(t_address,t_uint256)"
      },
      {
        "astId": 20045,
        "contract": "contracts/lending/configuration/LendingPoolAddressesProviderRegistry.sol:LendingPoolAddressesProviderRegistry",
        "label": "_addressesProvidersList",
        "offset": 0,
        "slot": "2",
        "type": "t_array(t_address)dyn_storage"
      }
    ],
    "types": {
      "t_address": {
        "encoding": "inplace",
        "label": "address",
        "numberOfBytes": "20"
      },
      "t_array(t_address)dyn_storage": {
        "base": "t_address",
        "encoding": "dynamic_array",
        "label": "address[]",
        "numberOfBytes": "32"
      },
      "t_mapping(t_address,t_uint256)": {
        "encoding": "mapping",
        "key": "t_address",
        "label": "mapping(address => uint256)",
        "numberOfBytes": "32",
        "value": "t_uint256"
      },
      "t_uint256": {
        "encoding": "inplace",
        "label": "uint256",
        "numberOfBytes": "32"
      }
    }
  }
}